{
  "_format": "hh-sol-artifact-1",
  "contractName": "Todo",
  "sourceName": "contracts/Todo.sol",
  "abi": [
    {
      "inputs": [],
      "stateMutability": "nonpayable",
      "type": "constructor"
    },
    {
      "anonymous": false,
      "inputs": [
        {
          "components": [
            {
              "internalType": "string",
              "name": "text",
              "type": "string"
            },
            {
              "internalType": "bool",
              "name": "completed",
              "type": "bool"
            }
          ],
          "indexed": false,
          "internalType": "struct Todo.Todo[]",
          "name": "_todos",
          "type": "tuple[]"
        }
      ],
      "name": "AddTodo",
      "type": "event"
    },
    {
      "anonymous": false,
      "inputs": [
        {
          "indexed": false,
          "internalType": "bool",
          "name": "_status",
          "type": "bool"
        }
      ],
      "name": "Marked",
      "type": "event"
    },
    {
      "inputs": [
        {
          "internalType": "string",
          "name": "_text",
          "type": "string"
        }
      ],
      "name": "create",
      "outputs": [],
      "stateMutability": "nonpayable",
      "type": "function"
    },
    {
      "inputs": [
        {
          "internalType": "uint256",
          "name": "_index",
          "type": "uint256"
        }
      ],
      "name": "get",
      "outputs": [
        {
          "internalType": "string",
          "name": "",
          "type": "string"
        },
        {
          "internalType": "bool",
          "name": "",
          "type": "bool"
        }
      ],
      "stateMutability": "view",
      "type": "function"
    },
    {
      "inputs": [],
      "name": "getTodos",
      "outputs": [
        {
          "components": [
            {
              "internalType": "string",
              "name": "text",
              "type": "string"
            },
            {
              "internalType": "bool",
              "name": "completed",
              "type": "bool"
            }
          ],
          "internalType": "struct Todo.Todo[]",
          "name": "",
          "type": "tuple[]"
        }
      ],
      "stateMutability": "view",
      "type": "function"
    },
    {
      "inputs": [
        {
          "internalType": "uint256",
          "name": "",
          "type": "uint256"
        }
      ],
      "name": "todos",
      "outputs": [
        {
          "internalType": "string",
          "name": "text",
          "type": "string"
        },
        {
          "internalType": "bool",
          "name": "completed",
          "type": "bool"
        }
      ],
      "stateMutability": "view",
      "type": "function"
    },
    {
      "inputs": [
        {
          "internalType": "uint256",
          "name": "_index",
          "type": "uint256"
        }
      ],
      "name": "toggleCompleted",
      "outputs": [],
      "stateMutability": "nonpayable",
      "type": "function"
    },
    {
      "inputs": [
        {
          "internalType": "uint256",
          "name": "_index",
          "type": "uint256"
        },
        {
          "internalType": "string",
          "name": "_text",
          "type": "string"
        }
      ],
      "name": "update",
      "outputs": [],
      "stateMutability": "nonpayable",
      "type": "function"
    }
  ],
  "bytecode": "0x608060405234801561001057600080fd5b50336000806101000a81548173ffffffffffffffffffffffffffffffffffffffff021916908373ffffffffffffffffffffffffffffffffffffffff1602179055506112b0806100606000396000f3fe608060405234801561001057600080fd5b50600436106100625760003560e01c8063455f5024146100675780639507d39a14610083578063b6a46b3b146100b4578063bc8bc2b4146100d0578063c33926cb14610101578063f745630f1461011f575b600080fd5b610081600480360381019061007c9190610870565b61013b565b005b61009d60048036038101906100989190610870565b6102a5565b6040516100ab929190610948565b60405180910390f35b6100ce60048036038101906100c991906109dd565b61040a565b005b6100ea60048036038101906100e59190610870565b610593565b6040516100f8929190610948565b60405180910390f35b61010961065c565b6040516101169190610b82565b60405180910390f35b61013960048036038101906101349190610ba4565b610768565b005b60008054906101000a900473ffffffffffffffffffffffffffffffffffffffff1673ffffffffffffffffffffffffffffffffffffffff163373ffffffffffffffffffffffffffffffffffffffff16146101c9576040517f08c379a00000000000000000000000000000000000000000000000000000000081526004016101c090610c50565b60405180910390fd5b600181815481106101dd576101dc610c70565b5b906000526020600020906002020160010160009054906101000a900460ff16156001828154811061021157610210610c70565b5b906000526020600020906002020160010160006101000a81548160ff0219169083151502179055507f1a8eb0c43f921cb761abe71e2e5b63a670a985d2fe32dfd61e0c93d729d70c286001828154811061026e5761026d610c70565b5b906000526020600020906002020160010160009054906101000a900460ff1660405161029a9190610c9f565b60405180910390a150565b606060008060009054906101000a900473ffffffffffffffffffffffffffffffffffffffff1673ffffffffffffffffffffffffffffffffffffffff163373ffffffffffffffffffffffffffffffffffffffff1614610338576040517f08c379a000000000000000000000000000000000000000000000000000000000815260040161032f90610c50565b60405180910390fd5b60006001848154811061034e5761034d610c70565b5b90600052602060002090600202019050806000018160010160009054906101000a900460ff1681805461038090610ce9565b80601f01602080910402602001604051908101604052809291908181526020018280546103ac90610ce9565b80156103f95780601f106103ce576101008083540402835291602001916103f9565b820191906000526020600020905b8154815290600101906020018083116103dc57829003601f168201915b505050505091509250925050915091565b60008054906101000a900473ffffffffffffffffffffffffffffffffffffffff1673ffffffffffffffffffffffffffffffffffffffff163373ffffffffffffffffffffffffffffffffffffffff1614610498576040517f08c379a000000000000000000000000000000000000000000000000000000000815260040161048f90610c50565b60405180910390fd5b6001604051806040016040528084848080601f016020809104026020016040519081016040528093929190818152602001838380828437600081840152601f19601f82011690508083019250505050505050815260200160001515815250908060018154018082558091505060019003906000526020600020906002020160009091909190915060008201518160000190816105349190610ef5565b5060208201518160010160006101000a81548160ff02191690831515021790555050507f3396831ba09b407e304ef88b8740922b402c862f52b2539541e65d0421a8e2b36001604051610587919061117d565b60405180910390a15050565b600181815481106105a357600080fd5b90600052602060002090600202016000915090508060000180546105c690610ce9565b80601f01602080910402602001604051908101604052809291908181526020018280546105f290610ce9565b801561063f5780601f106106145761010080835404028352916020019161063f565b820191906000526020600020905b81548152906001019060200180831161062257829003601f168201915b5050505050908060010160009054906101000a900460ff16905082565b60606001805480602002602001604051908101604052809291908181526020016000905b8282101561075f57838290600052602060002090600202016040518060400160405290816000820180546106b390610ce9565b80601f01602080910402602001604051908101604052809291908181526020018280546106df90610ce9565b801561072c5780601f106107015761010080835404028352916020019161072c565b820191906000526020600020905b81548152906001019060200180831161070f57829003601f168201915b505050505081526020016001820160009054906101000a900460ff16151515158152505081526020019060010190610680565b50505050905090565b60008054906101000a900473ffffffffffffffffffffffffffffffffffffffff1673ffffffffffffffffffffffffffffffffffffffff163373ffffffffffffffffffffffffffffffffffffffff16146107f6576040517f08c379a00000000000000000000000000000000000000000000000000000000081526004016107ed90610c50565b60405180910390fd5b81816001858154811061080c5761080b610c70565b5b9060005260206000209060020201600001918261082a9291906111aa565b50505050565b600080fd5b600080fd5b6000819050919050565b61084d8161083a565b811461085857600080fd5b50565b60008135905061086a81610844565b92915050565b60006020828403121561088657610885610830565b5b60006108948482850161085b565b91505092915050565b600081519050919050565b600082825260208201905092915050565b60005b838110156108d75780820151818401526020810190506108bc565b60008484015250505050565b6000601f19601f8301169050919050565b60006108ff8261089d565b61090981856108a8565b93506109198185602086016108b9565b610922816108e3565b840191505092915050565b60008115159050919050565b6109428161092d565b82525050565b6000604082019050818103600083015261096281856108f4565b90506109716020830184610939565b9392505050565b600080fd5b600080fd5b600080fd5b60008083601f84011261099d5761099c610978565b5b8235905067ffffffffffffffff8111156109ba576109b961097d565b5b6020830191508360018202830111156109d6576109d5610982565b5b9250929050565b600080602083850312156109f4576109f3610830565b5b600083013567ffffffffffffffff811115610a1257610a11610835565b5b610a1e85828601610987565b92509250509250929050565b600081519050919050565b600082825260208201905092915050565b6000819050602082019050919050565b600082825260208201905092915050565b6000610a728261089d565b610a7c8185610a56565b9350610a8c8185602086016108b9565b610a95816108e3565b840191505092915050565b610aa98161092d565b82525050565b60006040830160008301518482036000860152610acc8282610a67565b9150506020830151610ae16020860182610aa0565b508091505092915050565b6000610af88383610aaf565b905092915050565b6000602082019050919050565b6000610b1882610a2a565b610b228185610a35565b935083602082028501610b3485610a46565b8060005b85811015610b705784840389528151610b518582610aec565b9450610b5c83610b00565b925060208a01995050600181019050610b38565b50829750879550505050505092915050565b60006020820190508181036000830152610b9c8184610b0d565b905092915050565b600080600060408486031215610bbd57610bbc610830565b5b6000610bcb8682870161085b565b935050602084013567ffffffffffffffff811115610bec57610beb610835565b5b610bf886828701610987565b92509250509250925092565b7f596f75206e65656420746f206265206f776e6572000000000000000000000000600082015250565b6000610c3a6014836108a8565b9150610c4582610c04565b602082019050919050565b60006020820190508181036000830152610c6981610c2d565b9050919050565b7f4e487b7100000000000000000000000000000000000000000000000000000000600052603260045260246000fd5b6000602082019050610cb46000830184610939565b92915050565b7f4e487b7100000000000000000000000000000000000000000000000000000000600052602260045260246000fd5b60006002820490506001821680610d0157607f821691505b602082108103610d1457610d13610cba565b5b50919050565b7f4e487b7100000000000000000000000000000000000000000000000000000000600052604160045260246000fd5b60008190508160005260206000209050919050565b60006020601f8301049050919050565b600082821b905092915050565b600060088302610dab7fffffffffffffffffffffffffffffffffffffffffffffffffffffffffffffffff82610d6e565b610db58683610d6e565b95508019841693508086168417925050509392505050565b6000819050919050565b6000610df2610ded610de88461083a565b610dcd565b61083a565b9050919050565b6000819050919050565b610e0c83610dd7565b610e20610e1882610df9565b848454610d7b565b825550505050565b600090565b610e35610e28565b610e40818484610e03565b505050565b5b81811015610e6457610e59600082610e2d565b600181019050610e46565b5050565b601f821115610ea957610e7a81610d49565b610e8384610d5e565b81016020851015610e92578190505b610ea6610e9e85610d5e565b830182610e45565b50505b505050565b600082821c905092915050565b6000610ecc60001984600802610eae565b1980831691505092915050565b6000610ee58383610ebb565b9150826002028217905092915050565b610efe8261089d565b67ffffffffffffffff811115610f1757610f16610d1a565b5b610f218254610ce9565b610f2c828285610e68565b600060209050601f831160018114610f5f5760008415610f4d578287015190505b610f578582610ed9565b865550610fbf565b601f198416610f6d86610d49565b60005b82811015610f9557848901518255600182019150602085019450602081019050610f70565b86831015610fb25784890151610fae601f891682610ebb565b8355505b6001600288020188555050505b505050505050565b600081549050919050565b60008190508160005260206000209050919050565b60008154610ff481610ce9565b610ffe8186610a56565b94506001821660008114611019576001811461102f57611062565b60ff198316865281151560200286019350611062565b61103885610d49565b60005b8381101561105a5781548189015260018201915060208101905061103b565b808801955050505b50505092915050565b60008160001c9050919050565b600060ff82169050919050565b60006110986110938361106b565b611078565b9050919050565b600060408301600080840185830360008701526110bc8382610fe7565b925050600184015490506110cf81611085565b6110dc6020870182610aa0565b50819250505092915050565b60006110f4838361109f565b905092915050565b6000600282019050919050565b600061111482610fc7565b61111e8185610a35565b93508360208202850161113085610fd2565b8060005b8581101561116b5784840389528161114c85826110e8565b9450611157836110fc565b925060208a01995050600181019050611134565b50829750879550505050505092915050565b600060208201905081810360008301526111978184611109565b905092915050565b600082905092915050565b6111b4838361119f565b67ffffffffffffffff8111156111cd576111cc610d1a565b5b6111d78254610ce9565b6111e2828285610e68565b6000601f83116001811461121157600084156111ff578287013590505b6112098582610ed9565b865550611271565b601f19841661121f86610d49565b60005b8281101561124757848901358255600182019150602085019450602081019050611222565b868310156112645784890135611260601f891682610ebb565b8355505b6001600288020188555050505b5050505050505056fea2646970667358221220b2700a4f54e8b59c6c608ca901e562497559c2f0088a7830423a9824e9089d7464736f6c63430008110033",
  "linkReferences": {},
  "deployedLinkReferences": {}
}