{
  "_format": "hh-sol-artifact-1",
  "contractName": "Todo",
  "sourceName": "contracts/Todo.sol",
  "abi": [
    {
      "inputs": [],
      "stateMutability": "nonpayable",
      "type": "constructor"
    },
    {
      "anonymous": false,
      "inputs": [
        {
          "components": [
            {
              "internalType": "string",
              "name": "text",
              "type": "string"
            },
            {
              "internalType": "bool",
              "name": "completed",
              "type": "bool"
            }
          ],
          "indexed": false,
          "internalType": "struct Todo.Todo[]",
          "name": "_todos",
          "type": "tuple[]"
        }
      ],
      "name": "AddTodo",
      "type": "event"
    },
    {
      "inputs": [
        {
          "internalType": "string",
          "name": "_text",
          "type": "string"
        }
      ],
      "name": "create",
      "outputs": [],
      "stateMutability": "nonpayable",
      "type": "function"
    },
    {
      "inputs": [
        {
          "internalType": "uint256",
          "name": "_index",
          "type": "uint256"
        }
      ],
      "name": "get",
      "outputs": [
        {
          "internalType": "string",
          "name": "",
          "type": "string"
        },
        {
          "internalType": "bool",
          "name": "",
          "type": "bool"
        }
      ],
      "stateMutability": "view",
      "type": "function"
    },
    {
      "inputs": [],
      "name": "getTodos",
      "outputs": [
        {
          "components": [
            {
              "internalType": "string",
              "name": "text",
              "type": "string"
            },
            {
              "internalType": "bool",
              "name": "completed",
              "type": "bool"
            }
          ],
          "internalType": "struct Todo.Todo[]",
          "name": "",
          "type": "tuple[]"
        }
      ],
      "stateMutability": "view",
      "type": "function"
    },
    {
      "inputs": [
        {
          "internalType": "uint256",
          "name": "",
          "type": "uint256"
        }
      ],
      "name": "todos",
      "outputs": [
        {
          "internalType": "string",
          "name": "text",
          "type": "string"
        },
        {
          "internalType": "bool",
          "name": "completed",
          "type": "bool"
        }
      ],
      "stateMutability": "view",
      "type": "function"
    },
    {
      "inputs": [
        {
          "internalType": "uint256",
          "name": "_index",
          "type": "uint256"
        }
      ],
      "name": "toggleCompleted",
      "outputs": [],
      "stateMutability": "nonpayable",
      "type": "function"
    },
    {
      "inputs": [
        {
          "internalType": "uint256",
          "name": "_index",
          "type": "uint256"
        },
        {
          "internalType": "string",
          "name": "_text",
          "type": "string"
        }
      ],
      "name": "update",
      "outputs": [],
      "stateMutability": "nonpayable",
      "type": "function"
    }
  ],
  "bytecode": "0x608060405234801561001057600080fd5b50336000806101000a81548173ffffffffffffffffffffffffffffffffffffffff021916908373ffffffffffffffffffffffffffffffffffffffff16021790555061122c806100606000396000f3fe608060405234801561001057600080fd5b50600436106100625760003560e01c8063455f5024146100675780639507d39a14610083578063b6a46b3b146100b4578063bc8bc2b4146100d0578063c33926cb14610101578063f745630f1461011f575b600080fd5b610081600480360381019061007c9190610807565b61013b565b005b61009d60048036038101906100989190610807565b61023c565b6040516100ab9291906108df565b60405180910390f35b6100ce60048036038101906100c99190610974565b6103a1565b005b6100ea60048036038101906100e59190610807565b61052a565b6040516100f89291906108df565b60405180910390f35b6101096105f3565b6040516101169190610b19565b60405180910390f35b61013960048036038101906101349190610b3b565b6106ff565b005b60008054906101000a900473ffffffffffffffffffffffffffffffffffffffff1673ffffffffffffffffffffffffffffffffffffffff163373ffffffffffffffffffffffffffffffffffffffff16146101c9576040517f08c379a00000000000000000000000000000000000000000000000000000000081526004016101c090610be7565b60405180910390fd5b600181815481106101dd576101dc610c07565b5b906000526020600020906002020160010160009054906101000a900460ff16156001828154811061021157610210610c07565b5b906000526020600020906002020160010160006101000a81548160ff02191690831515021790555050565b606060008060009054906101000a900473ffffffffffffffffffffffffffffffffffffffff1673ffffffffffffffffffffffffffffffffffffffff163373ffffffffffffffffffffffffffffffffffffffff16146102cf576040517f08c379a00000000000000000000000000000000000000000000000000000000081526004016102c690610be7565b60405180910390fd5b6000600184815481106102e5576102e4610c07565b5b90600052602060002090600202019050806000018160010160009054906101000a900460ff1681805461031790610c65565b80601f016020809104026020016040519081016040528092919081815260200182805461034390610c65565b80156103905780601f1061036557610100808354040283529160200191610390565b820191906000526020600020905b81548152906001019060200180831161037357829003601f168201915b505050505091509250925050915091565b60008054906101000a900473ffffffffffffffffffffffffffffffffffffffff1673ffffffffffffffffffffffffffffffffffffffff163373ffffffffffffffffffffffffffffffffffffffff161461042f576040517f08c379a000000000000000000000000000000000000000000000000000000000815260040161042690610be7565b60405180910390fd5b6001604051806040016040528084848080601f016020809104026020016040519081016040528093929190818152602001838380828437600081840152601f19601f82011690508083019250505050505050815260200160001515815250908060018154018082558091505060019003906000526020600020906002020160009091909190915060008201518160000190816104cb9190610e71565b5060208201518160010160006101000a81548160ff02191690831515021790555050507f3396831ba09b407e304ef88b8740922b402c862f52b2539541e65d0421a8e2b3600160405161051e91906110f9565b60405180910390a15050565b6001818154811061053a57600080fd5b906000526020600020906002020160009150905080600001805461055d90610c65565b80601f016020809104026020016040519081016040528092919081815260200182805461058990610c65565b80156105d65780601f106105ab576101008083540402835291602001916105d6565b820191906000526020600020905b8154815290600101906020018083116105b957829003601f168201915b5050505050908060010160009054906101000a900460ff16905082565b60606001805480602002602001604051908101604052809291908181526020016000905b828210156106f6578382906000526020600020906002020160405180604001604052908160008201805461064a90610c65565b80601f016020809104026020016040519081016040528092919081815260200182805461067690610c65565b80156106c35780601f10610698576101008083540402835291602001916106c3565b820191906000526020600020905b8154815290600101906020018083116106a657829003601f168201915b505050505081526020016001820160009054906101000a900460ff16151515158152505081526020019060010190610617565b50505050905090565b60008054906101000a900473ffffffffffffffffffffffffffffffffffffffff1673ffffffffffffffffffffffffffffffffffffffff163373ffffffffffffffffffffffffffffffffffffffff161461078d576040517f08c379a000000000000000000000000000000000000000000000000000000000815260040161078490610be7565b60405180910390fd5b8181600185815481106107a3576107a2610c07565b5b906000526020600020906002020160000191826107c1929190611126565b50505050565b600080fd5b600080fd5b6000819050919050565b6107e4816107d1565b81146107ef57600080fd5b50565b600081359050610801816107db565b92915050565b60006020828403121561081d5761081c6107c7565b5b600061082b848285016107f2565b91505092915050565b600081519050919050565b600082825260208201905092915050565b60005b8381101561086e578082015181840152602081019050610853565b60008484015250505050565b6000601f19601f8301169050919050565b600061089682610834565b6108a0818561083f565b93506108b0818560208601610850565b6108b98161087a565b840191505092915050565b60008115159050919050565b6108d9816108c4565b82525050565b600060408201905081810360008301526108f9818561088b565b905061090860208301846108d0565b9392505050565b600080fd5b600080fd5b600080fd5b60008083601f8401126109345761093361090f565b5b8235905067ffffffffffffffff81111561095157610950610914565b5b60208301915083600182028301111561096d5761096c610919565b5b9250929050565b6000806020838503121561098b5761098a6107c7565b5b600083013567ffffffffffffffff8111156109a9576109a86107cc565b5b6109b58582860161091e565b92509250509250929050565b600081519050919050565b600082825260208201905092915050565b6000819050602082019050919050565b600082825260208201905092915050565b6000610a0982610834565b610a1381856109ed565b9350610a23818560208601610850565b610a2c8161087a565b840191505092915050565b610a40816108c4565b82525050565b60006040830160008301518482036000860152610a6382826109fe565b9150506020830151610a786020860182610a37565b508091505092915050565b6000610a8f8383610a46565b905092915050565b6000602082019050919050565b6000610aaf826109c1565b610ab981856109cc565b935083602082028501610acb856109dd565b8060005b85811015610b075784840389528151610ae88582610a83565b9450610af383610a97565b925060208a01995050600181019050610acf565b50829750879550505050505092915050565b60006020820190508181036000830152610b338184610aa4565b905092915050565b600080600060408486031215610b5457610b536107c7565b5b6000610b62868287016107f2565b935050602084013567ffffffffffffffff811115610b8357610b826107cc565b5b610b8f8682870161091e565b92509250509250925092565b7f596f75206e65656420746f206265206f776e6572000000000000000000000000600082015250565b6000610bd160148361083f565b9150610bdc82610b9b565b602082019050919050565b60006020820190508181036000830152610c0081610bc4565b9050919050565b7f4e487b7100000000000000000000000000000000000000000000000000000000600052603260045260246000fd5b7f4e487b7100000000000000000000000000000000000000000000000000000000600052602260045260246000fd5b60006002820490506001821680610c7d57607f821691505b602082108103610c9057610c8f610c36565b5b50919050565b7f4e487b7100000000000000000000000000000000000000000000000000000000600052604160045260246000fd5b60008190508160005260206000209050919050565b60006020601f8301049050919050565b600082821b905092915050565b600060088302610d277fffffffffffffffffffffffffffffffffffffffffffffffffffffffffffffffff82610cea565b610d318683610cea565b95508019841693508086168417925050509392505050565b6000819050919050565b6000610d6e610d69610d64846107d1565b610d49565b6107d1565b9050919050565b6000819050919050565b610d8883610d53565b610d9c610d9482610d75565b848454610cf7565b825550505050565b600090565b610db1610da4565b610dbc818484610d7f565b505050565b5b81811015610de057610dd5600082610da9565b600181019050610dc2565b5050565b601f821115610e2557610df681610cc5565b610dff84610cda565b81016020851015610e0e578190505b610e22610e1a85610cda565b830182610dc1565b50505b505050565b600082821c905092915050565b6000610e4860001984600802610e2a565b1980831691505092915050565b6000610e618383610e37565b9150826002028217905092915050565b610e7a82610834565b67ffffffffffffffff811115610e9357610e92610c96565b5b610e9d8254610c65565b610ea8828285610de4565b600060209050601f831160018114610edb5760008415610ec9578287015190505b610ed38582610e55565b865550610f3b565b601f198416610ee986610cc5565b60005b82811015610f1157848901518255600182019150602085019450602081019050610eec565b86831015610f2e5784890151610f2a601f891682610e37565b8355505b6001600288020188555050505b505050505050565b600081549050919050565b60008190508160005260206000209050919050565b60008154610f7081610c65565b610f7a81866109ed565b94506001821660008114610f955760018114610fab57610fde565b60ff198316865281151560200286019350610fde565b610fb485610cc5565b60005b83811015610fd657815481890152600182019150602081019050610fb7565b808801955050505b50505092915050565b60008160001c9050919050565b600060ff82169050919050565b600061101461100f83610fe7565b610ff4565b9050919050565b600060408301600080840185830360008701526110388382610f63565b9250506001840154905061104b81611001565b6110586020870182610a37565b50819250505092915050565b6000611070838361101b565b905092915050565b6000600282019050919050565b600061109082610f43565b61109a81856109cc565b9350836020820285016110ac85610f4e565b8060005b858110156110e7578484038952816110c88582611064565b94506110d383611078565b925060208a019950506001810190506110b0565b50829750879550505050505092915050565b600060208201905081810360008301526111138184611085565b905092915050565b600082905092915050565b611130838361111b565b67ffffffffffffffff81111561114957611148610c96565b5b6111538254610c65565b61115e828285610de4565b6000601f83116001811461118d576000841561117b578287013590505b6111858582610e55565b8655506111ed565b601f19841661119b86610cc5565b60005b828110156111c35784890135825560018201915060208501945060208101905061119e565b868310156111e057848901356111dc601f891682610e37565b8355505b6001600288020188555050505b5050505050505056fea2646970667358221220b06147a63193803eabcf037cf9d5e33b8385e6d4affe110e2cff6b2777bf761864736f6c63430008110033",
  "linkReferences": {},
  "deployedLinkReferences": {}
}